:100000000C94F6000C941E010C941E010C941E011D
:100010000C941E010C941E010C941E010C941E01E4
:100020000C941E010C941E010C9440120C94D210DE
:100030000C941E010C941E010C941E010C941E01C4
:100040000C941E010C941E010C941E010C941E01B4
:100050000C941E010C941E010C941E010C941809A2
:100060000C941E010C943B0C0C946D0C0C941E0112
:100070000C941E010C941E010C941E010C941E0184
:100080000C941E010C941E010C941E010C941E0174
:100090000C941E010C941E010C941E010C941E0164
:1000A0000C941E010C941E010C941E01390A3C0A8A
:1000B0002B0A2F0A350A5D0A5D0A5D0A400A440AC6
:1000C000480A4E0A520A5D0A580A72756E2D62720B
:1000D000696467650A000A000A000000000200095E
:1000E0000F0000030401000C0000000000000000ED
:1000F0000000000000000000000408020110408021
:1001000040102040804080080204018040201002FE
:10011000011080102040402004040404040304055E
:100120000202020204030202020206060606060694
:100130000404020202040400000000230026002937
:10014000002C002F0000000000250028002B002EAE
:1001500000310000000000240027002A002D00309C
:100160000012010002EF0201404123418000010121
:1001700002030112010002000000404123418000FF
:10018000010102030141726475696E6F204C4C439A
:100190000041726475696E6F2059756E0004030921
:1001A00004080B000202020100090400000102021F
:1001B00000000524001001052401010104240206A9
:1001C0000524060001070581031000400904010011
:1001D000020A000000070502024000000705830232
:1001E0004000000017051E079D0CD11311241FBEEF
:1001F000CFEFDAE0DEBFCDBF11E0A0E0B1E0E0E993
:10020000FEE202C005900D92AA3BB107D9F722E0A9
:10021000AAEBB1E001C01D92A83FB207E1F711E0DF
:10022000CCEED1E004C02297FE010E94C114C43E6E
:10023000D107C9F70E947D0E0C9446170C9400005C
:1002400061E08DE00E945E0A60E083E00E945E0A49
:1002500061E083E00E94970A26E040E950ED63E008
:1002600070E08091C7019091C8010E94D90B8EEB7C
:1002700091E00C941004CF93DF93EC016AE971E0F4
:100280000E94DA0D0E940409BC01CE010E944B0EAF
:1002900067E271E0CE010E943B0E0E940C09BC0196
:1002A000CE010E944B0E67E271E0CE010E943B0E30
:1002B0000E941409BC01CE010E944B0E66E471E05D
:1002C000CE010E943B0E0E94EC08BC01CE010E94B0
:1002D0004B0E69E271E0CE010E943B0E0E94F408D1
:1002E000BC01CE010E944B0E69E271E0CE010E947A
:1002F0003B0E0E94FC08BC01CE010E944B0ECE01B9
:10030000DF91CF910895CF93DF93CDB7DEB7C0567D
:10031000D1090FB6F894DEBF0FBECDBF83E00E94B7
:10032000CD0A9093BB018093BA016AE971E0CE01D6
:10033000855A9F4F0E94DA0D8091BA019091BB01BE
:100340002091BC013091BD018217930709F453C07D
:10035000019749F46BE271E0CE01855A9F4F0E94EC
:100360003B0E60E008C06DE271E0CE01855A9F4F00
:100370000E943B0E61E08DE00E94970A6FE271E0FF
:10038000CE01855A9F4F0E943B0ECE0101960E94DE
:100390003B01BE016F5F7F4FCE01855A9F4F0E9488
:1003A000340ECE0101960E946C0D22E041E351E033
:1003B00069EC71E0CE0101960E941107CE01019611
:1003C0000E944F06882359F0BE01655A7F4FCE0127
:1003D00001960E945A0DCE0101960E94CD06809191
:1003E000BA019091BB019093BD018093BC01CE01F5
:1003F00001960E94000768EE73E080E090E00E94A2
:100400009109CE01855A9F4F0E946C0DC05ADF4F53
:100410000FB6F894DEBF0FBECDBFDF91CF91089528
:10042000FC01238134812627022E2295207F20255E
:10043000032E322F22952F7002262695322723274E
:10044000220F220F220F2025FC01348323830895DD
:10045000CF93DF93EC018D819E81DC01ED91FC91C6
:100460006C810190F081E02D09958D819E81DC01E8
:10047000ED91FC910190F081E02D6B81DF91CF91A6
:1004800009948F929F92AF92BF92CF92DF92EF9298
:10049000FF92CF93DF93EC016B010E9462094B0145
:1004A0005C01E12CF12C8D819E81DC01ED91FC91B0
:1004B0000680F781E02D099597FF0DC00E94620923
:1004C000681979098A099B096C157D058E059F05B8
:1004D00050F38FEF9FEFDF91CF91FF90EF90DF9080
:1004E000CF90BF90AF909F908F900895CF93DF9360
:1004F000EC018D819E81DC01ED91FC910480F58100
:10050000E02D09951816190654F48D819E81DC01A1
:10051000ED91FC910680F781E02D0995EACFDF91FE
:10052000CF9108952F923F924F925F926F927F9258
:100530008F929F92AF92BF92CF92DF92EF92FF92F3
:100540000F931F93CF93DF93CDB7DEB72D970FB6E1
:10055000F894DEBF0FBECDBF3C011B013C832B8353
:10056000BF82AE825801AC0CBD1CA40EB51EBD826C
:100570004B2C512CCA01860F971F99878887D90168
:10058000A00FB11FBB87AA87F601EE0DFF1DFD87E7
:10059000EC87D30118968C91581608F026C1EFEF1E
:1005A000FFEFD3011496FC93EE93139715968D915C
:1005B0009C911697DC01ED91FC910190F081E02D6A
:1005C0006FEF09956FEFC3010E941002F30185815F
:1005D0009681DC01ED91FC910190F081E02DD30139
:1005E0006C910995F3016081C3010E941002D3014F
:1005F00015968D919C911697DC01ED91FC910190DF
:10060000F081E02D6D810995642DC3010E941002D7
:10061000F30185819681DC01ED91FC910190F081DF
:10062000E02D6A2D09956A2DC3010E941002610117
:1006300088859985C816D906A1F0F3018581968130
:100640008601DC01ED91FC910190F081E02DD60155
:100650006D916D010995F8016081C3010E9410023E
:10066000E7CFCB80DC808A859B85C816D906B1F0A0
:10067000D30115968D919C9116978601DC01ED9121
:10068000FC910190F081E02DD6016D916D010995ED
:10069000F8016081C3010E941002E5CF87018C85BB
:1006A0009D8508171907B1F0D30115968D919C917E
:1006B00016976801DC01ED91FC910190F081E02D2D
:1006C000D8016D918D010995F6016081C3010E94E9
:1006D0001002E5CFC3010E94280264E670E0C30166
:1006E0000E9441028F3F910509F074C0EFEFFFEFC8
:1006F000D3011496FC93EE9313976FEFC3010E94FE
:10070000100265E070E0C3010E944102D3016C91C8
:10071000262F30E08217930709F05CC0C3010E94C6
:1007200010026AE070E0C3010E9441028C0197FD53
:1007300051C0682FC3010E9410026AE070E0C3013B
:100740000E9441026C0197FD45C0682FC3010E94C1
:1007500010020A83198209811A810C0D1D1DC12CFA
:10076000D12C65E070E0C301C016D106A1F0C81419
:10077000D90489F00E94410297FD09C0EE81FF81F2
:10078000EC0DFD1D8083682FC3010E941002BFEF96
:10079000CB1ADB0AE6CF0E9441026C0197FD1AC01A
:1007A00065E070E0C3010E94410297FD13C0DC2C9C
:1007B000CC24C80ED91EF301838194818C159D052C
:1007C00049F480818F5F8083C8018016910678F498
:1007D000C4010DC0539464E670E080E090E00E9494
:1007E0009109C3010E947602D4CE8FEF9FEF2D9620
:1007F0000FB6F894DEBF0FBECDBFDF91CF911F9132
:100800000F91FF90EF90DF90CF90BF90AF909F90AF
:100810008F907F906F905F904F903F902F900895B2
:100820003F924F925F926F927F928F929F92AF9280
:10083000BF92CF92DF92EF92FF920F931F93CF93CD
:10084000DF93CDB7DEB72E970FB6F894DEBF0FBE9D
:10085000CDBF3C01DC0117968C9117978111CFC059
:1008600081E017968C93C3010E94760268EE73E0D4
:1008700080E090E00E949109F30185819681DC017E
:10088000ED91FC910480F581E02D0995181619066B
:1008900054F355E0552E4424439462E3362EEDE1A3
:1008A000F1E0DE011696852D01900D928A95E1F713
:1008B000F3014086812C912CA12CB12CC12CD12C80
:1008C000E12CF12C00E010E020E030E045E050E0C9
:1008D000BE016A5F7F4FC3010E94920263E0D301B1
:1008E00015968D919C9116970E944F0D6AEF70E0BE
:1008F00080E090E00E94910968ED70E0F30185814D
:1009000096810E941E0D6AEF70E080E090E00E94E8
:10091000910966ED70E0D30115968D919C91169723
:100920000E941E0D64EF71E080E090E00E9491094A
:100930006AEC70E0F301858196810E941E0D64EFE0
:1009400071E080E090E00E949109C3010E9476026C
:10095000E2E2F1E0DE011196852D01900D928A957B
:10096000E1F7D30118963C9244E0842E912CFE01CD
:100970003B965F0120E030E045E050E0BE016F5F54
:100980007F4FC3010E9492028F3FFFEF9F0739F410
:1009900068EE73E080E090E00E94910980CF2B85A3
:1009A0002111FFCF049711F52C8530E02053310938
:1009B00044E6429FC001439F900D11242D8530E0F5
:1009C000205331096AE0629FA001639F500D1124FA
:1009D000840F951F2E8530E020533109820F931F1D
:1009E000D30112969C938E93119705C084E690E0F4
:1009F000F3019283818382E3D30118968C932E9620
:100A00000FB6F894DEBF0FBECDBFDF91CF911F911F
:100A10000F91FF90EF90DF90CF90BF90AF909F909D
:100A20008F907F906F905F904F903F9008951092BD
:100A3000BE018FEE91E09093C4018093C3011092A8
:100A4000C5011092C6019093C8018093C701089513
:100A5000CF93DF931F92CDB7DEB76983DC01ED91B1
:100A6000FC910280F381E02D41E050E0BE016F5F18
:100A70007F4F09950F90DF91CF91089508956F9260
:100A80007F928F929F92AF92BF92CF92DF92EF921E
:100A9000FF920F931F93CF93DF9300D01F92CDB798
:100AA000DEB79B013A01FC01E85AFF4F40814F3FFE
:100AB00021F147E64983319640814A83399788245A
:100AC0008394912CCE0103965C01C12CD12CE12C96
:100AD000F12C830142E050E0BE016F5F7F4F8081C7
:100AE00091810E9492028B81882329F090E0919558
:100AF0008195910904C0C30102C08FEF9FEF0F9051
:100B00000F900F90DF91CF911F910F91FF90EF9079
:100B1000DF90CF90BF90AF909F908F907F906F901D
:100B200008958F929F92AF92BF92CF92DF92EF92F1
:100B3000FF920F931F9348015901C12CD12CE12C36
:100B4000F12C00E010E020E030E00E9492021F91C2
:100B50000F91FF90EF90DF90CF90BF90AF909F905C
:100B60008F9008952F923F924F925F926F927F9253
:100B70008F929F92AF92BF92CF92DF92EF92FF92AD
:100B80000F931F93CF93DF93CDB7DEB728970FB6A0
:100B9000F894DEBF0FBECDBF3C018B01FC01138278
:100BA000128288EE93E0A0E0B0E084839583A68370
:100BB000B78380E791E0918380831301F0E52F0EE6
:100BC000311CF101318320837301F2E5EF0EF11C3A
:100BD0006AE971E0C70148870E94DA0D230188E5C0
:100BE000480E511C4885F2014083B801C7010E949C
:100BF000F00D82E7898387E78A8381E68B8386E429
:100C00008E83F2018081FE01E80FF11D81818F83C7
:100C100081E090E0F30197878687EA5AFF4F0081D1
:100C20001181F7012081318192E0892E912CCE0132
:100C300004965C01C12CD12CE12CF12C42E050E057
:100C4000BE016A5F7F4FF101808191810E94920213
:100C50008C81882321F08FEFF201808307C0F3019C
:100C6000E75AFF4F8D818083F301148628960FB6D3
:100C7000F894DEBF0FBECDBFDF91CF911F910F91D2
:100C8000FF90EF90DF90CF90BF90AF909F908F90AC
:100C90007F906F905F904F903F902F900895FC0150
:100CA000E85AFF4F81E090819F3F09F480E008956A
:100CB000EF92FF920F931F93CF93DF9300D01F9279
:100CC000CDB7DEB77C01FC018485811127C0158674
:100CD00087E489838FE38B83E75AFF4F80818A8380
:100CE00000E410E09701205F3F4F43E050E0BE0179
:100CF0006F5F7F4F3997808191810E9491059C01A0
:100D0000215031092E3F3F4F18F0F701148606C0DD
:100D1000F70195859F5F9587815084870F900F908D
:100D20000F90DF91CF911F910F91FF90EF90089559
:100D3000CF93DF93EC010E9458068C85882359F0ED
:100D400081508C878D8591E0980F9D87C80FD11DAC
:100D5000888990E002C08FEF9FEFDF91CF910895D7
:100D6000CF93DF93EC010E9458068C85882331F0E5
:100D70008D85C80FD11D888990E002C08FEF9FEF4D
:100D8000DF91CF910895CF93DF93EC010E94580635
:100D90008C8590E0DF91CF910895EF92FF920F93B1
:100DA0001F93CF93DF9300D01F92CDB7DEB77C01A6
:100DB00028E5E20EF11CF70120812F3FB9F026E66D
:100DC0002983319620812A83399701E010E09E0122
:100DD0002D5F3F4F42E050E0BE016F5F7F4F80814B
:100DE00091810E9491058FEFF70180830F900F9002
:100DF0000F90DF91CF911F910F91FF90EF90089589
:100E0000CF93DF93EC0180E791E099838883CE0153
:100E10000E94CD06CE018E5A9F4FDF91CF910C9448
:100E20006C0DCF93DF93EC01BA01422F2EEB31E032
:100E30000E94B205CE01DF91CF9108958EEB91E033
:100E40009093CA018093C90108956F927F928F9207
:100E50009F92AF92BF92CF92DF92EF92FF920F9349
:100E60001F93CF93DF93EA012CE3C22ED12CE12C08
:100E7000F12CA70196010E949D146883CA01B90153
:100E8000A70196010E949D146983CA01B90128E156
:100E900030E040E050E00E949D1449015A016A830D
:100EA000CA01B9016C5F7F4F8F4F9F4F27E030E041
:100EB00040E050E00E949D146F5F6B8300E010E003
:100EC000980140E054E6652E712C60E9C62EDD24C1
:100ED000D394E42FF0E0EE54F84F7F0183E0E82252
:100EE000FF24E114F10489F4CF01B3010E948914B5
:100EF000892B29F08EE691E0A0E0B0E00AC0CF0196
:100F0000B6010E948914892BA9F38DE691E0A0E037
:100F1000B0E0080F191F2A1F3B1FD901C801AA27DB
:100F2000BB2788169906AA06BB0610F04F5FD1CFE3
:100F30004E83E114F10499F4CF0164E670E00E945D
:100F40008914892B29F08EE691E0A0E0B0E00BC077
:100F5000CF0160E971E00E948914892BA1F38DE62D
:100F600091E0A0E0B0E0081B190B2A0B3B0B801AA4
:100F7000910AA20AB30ACF0164E670E00E948914C4
:100F80009C01CF0160E971E00E948914ECE7F1E077
:100F9000A0E0A13059F4E114F10451F42115310518
:100FA00011F04DE106C00097E1F302C0408101C09D
:100FB0004CE150E060E070E084169506A606B706A6
:100FC00040F0841A950AA60AB70AAF5F3196AC3092
:100FD00001F7AF5FAD8383948C82DF91CF911F9136
:100FE0000F91FF90EF90DF90CF90BF90AF909F90C8
:100FF0008F907F906F900895CF92DF92EF92FF9243
:101000006B017C018091DB019091DC01A091DD01FD
:10101000B091DE01C816D906EA06FB0671F04FED65
:1010200051E0C701B6010E942507C092DB01D092B2
:10103000DC01E092DD01F092DE01FF90EF90DF90A5
:10104000CF9008950E94FC078091E50190E08E54B6
:10105000984F08950F931F936093D7017093D80111
:101060008093D9019093DA01009106011091070154
:101070002091080130910901060F171F281F391F01
:101080000093CF011093D0012093D1013093D2016E
:1010900082E090E09093CE018093CD010E9462099E
:1010A0006093D3017093D4018093D5019093D601BE
:1010B0001F910F910895CF92DF92EF92FF920F93BD
:1010C0001F930E946209C090D301D090D401E09098
:1010D000D501F090D6016C197D098E099F09009108
:1010E000D7011091D8012091D9013091DA01683EE1
:1010F000734081059105D8F00F5F1F4F2F4F3F4F71
:101100000093D7011093D8012093D9013093DA01CD
:1011100048EEC40E43E0D41EE11CF11CC092D30182
:10112000D092D401E092D501F092D601CACF80913D
:10113000CF019091D001A091D101B091D2010817B7
:1011400019072A073B07C8F1E091CB01F091CC01C8
:10115000309799F10995611571058105910519F08F
:101160000E942A082AC08091060190910701A0914F
:101170000801B09109014091D7015091D8016091C7
:10118000D9017091DA01840F951FA61FB71F8093B4
:10119000CF019093D001A093D101B093D20181E00F
:1011A00090E02091CD013091CE01232B11F480E00D
:1011B00090E09093CE018093CD016091D701709122
:1011C000D8018091D9019091DA011F910F91FF9080
:1011D000EF90DF90CF9008950E945B080E94FC077B
:1011E0008091E10190E008950E945B080E94FC0755
:1011F0008091E00190E008950E945B080E94FC0746
:101200008091DF0190E008950E945B080E94FC0736
:101210008091E30190E008950E945B080E94FC0722
:101220008091E40190E008950E945B080C942208EC
:101230001F920F920FB60F9211242F933F938F930B
:101240009F93AF93BF938091E7019091E801A091A4
:10125000E901B091EA013091E60123E0230F2D3737
:1012600020F40196A11DB11D05C026E8230F0296AA
:10127000A11DB11D2093E6018093E7019093E80141
:10128000A093E901B093EA018091EB019091EC0108
:10129000A091ED01B091EE010196A11DB11D8093C9
:1012A000EB019093EC01A093ED01B093EE01BF919F
:1012B000AF919F918F913F912F910F900FBE0F9003
:1012C0001F9018952FB7F8946091E7017091E8018D
:1012D0008091E9019091EA012FBF08953FB7F894FA
:1012E0008091EB019091EC01A091ED01B091EE01A4
:1012F00026B5A89B05C02F3F19F00196A11DB11D71
:101300003FBF6627782F892F9A2F620F711D811D8D
:10131000911D42E0660F771F881F991F4A95D1F7EC
:1013200008958F929F92AF92BF92CF92DF92EF92E9
:10133000FF926B017C010E946E094B015C01C1149C
:10134000D104E104F104F1F00E94900E0E946E09B4
:10135000681979098A099B09683E734081059105DE
:1013600070F321E0C21AD108E108F10888EE880E76
:1013700083E0981EA11CB11CC114D104E104F10446
:1013800029F7DDCFFF90EF90DF90CF90BF90AF9027
:101390009F908F900895789484B5826084BD84B5C1
:1013A000816084BD85B5826085BD85B5816085BD60
:1013B000EEE6F0E0808181608083E1E8F0E0108279
:1013C000808182608083808181608083E0E8F0E0BA
:1013D000808181608083E1E9F0E0808182608083A8
:1013E000808181608083E0E9F0E08081816080839A
:1013F000E1ECF0E080818460808380818260808382
:10140000808181608083E3ECF0E080818160808373
:10141000E0ECF0E0808182608083E2ECF0E08081AB
:1014200081608083EAE7F0E080818460808380814E
:1014300082608083808181608083808180688083F6
:10144000089590E0FC013197EF30F105B0F5EA5ACC
:10145000FF4F0C94BF14809180008F7703C0809160
:1014600080008F7D80938000089580918000877F29
:10147000F9CF84B58F7702C084B58F7D84BD089580
:10148000809190008F7707C0809190008F7D03C07E
:1014900080919000877F8093900008958091C00094
:1014A0008F7703C08091C0008F7D8093C000089526
:1014B0008091C200877F8093C2000895CF93DF930D
:1014C00090E0FC01E750FF4F2491FC01E85EFE4FE5
:1014D0008491882349F190E0880F991FFC01ED5A0F
:1014E000FE4FA591B4918B5B9E4FFC01C591D491A9
:1014F0009FB7611108C0F8948C91209582238C933A
:10150000888182230AC0623051F4F8948C91322F82
:10151000309583238C938881822B888304C0F89430
:101520008C91822B8C939FBFDF91CF9108950F9365
:101530001F93CF93DF931F92CDB7DEB7282F30E0F4
:10154000F901E652FF4F8491F901E750FF4F1491E2
:10155000F901E85EFE4F04910023C9F0882321F0D1
:1015600069830E94210A6981E02FF0E0EE0FFF1FDE
:10157000EB5BFE4FA591B4919FB7F8948C916111EC
:1015800003C01095812301C0812B8C939FBF0F90C6
:10159000DF91CF911F910F910895CF93DF93282F63
:1015A00030E0F901E652FF4F8491F901E750FF4F17
:1015B000D491F901E85EFE4FC491CC2391F08111E2
:1015C0000E94210AEC2FF0E0EE0FFF1FE95CFE4FB6
:1015D000A591B4912C912D2381E090E021F480E03D
:1015E00002C080E090E0DF91CF910895FC01818DF1
:1015F000228D90E0805C9F4F821B91098F73992709
:101600000895FC01918D828D981731F0828DE80F3D
:10161000F11D858D90E008958FEF9FEF0895FC01F7
:10162000918D828D981761F0828DDF01A80FB11D19
:101630005D968C91928D9F5F9F73928F90E008953D
:101640008FEF9FEF089583E99CE0892B49F080E0BC
:1016500090E0892B29F00E94930C81110C940000DA
:101660000895FC01848DDF01A80FB11DA35ABF4F5F
:101670002C91848D90E001968F739927848FA68991
:10168000B7892C93A089B1898C9180648C93938DB8
:10169000848D981306C00288F389E02D80818F7DA8
:1016A00080830895CF93DF93EC01888D8823C9F060
:1016B000EA89FB89808185FD05C0A889B9898C915B
:1016C00086FD0FC00FB607FCF5CF808185FFF2CFF6
:1016D000A889B9898C9185FFEDCFCE010E94310B8D
:1016E000E7CFDF91CF910895CF92DF92FF920F93D2
:1016F0001F93CF93DF931F92CDB7DEB76C0181E0CC
:10170000D60158968C9358975B969C915B975C9604
:101710008C915C97981307C05096ED91FC9151976E
:10172000808185FD2EC0F601038D10E00F5F1F4FF5
:101730000F731127F02EF601848DF81211C00FB629
:1017400007FCF9CFD6015096ED91FC91519780811D
:1017500085FFF1CFC60169830E94310B6981EBCF10
:10176000838DE80FF11DE35AFF4F6083D6015B962E
:101770000C935B975296ED91FC9153978081806218
:101780000CC0D6015696ED91FC9157976083509608
:10179000ED91FC91519780818064808381E090E09D
:1017A0000F90DF91CF911F910F91FF90DF90CF901D
:1017B0000895BF92CF92DF92EF92FF92CF93DF9383
:1017C000EC016A017B01B22EE889F98982E080830D
:1017D000411581EE580761057105A1F060E079E0DF
:1017E0008DE390E0A70196010E949D1421503109DC
:1017F000410951095695479537952795211580E15F
:10180000380798F0E889F989108260E874E88EE179
:1018100090E0A70196010E949D14215031094109D1
:1018200051095695479537952795EC85FD85308369
:10183000EE85FF852083188EEC89FD89B082EA89C8
:10184000FB89808180618083EA89FB89808188604F
:101850008083EA89FB89808180688083EA89FB89AB
:1018600080818F7D8083DF91CF91FF90EF90DF901B
:10187000CF90BF9008951F920F920FB60F92112430
:101880002F938F939F93EF93FF93E091FF01F0913C
:1018900000028081E0910502F091060282FD12C0F3
:1018A0009081809108028F5F8F73209109028217C7
:1018B00051F0E0910802F0E0E151FE4F958F8093E6
:1018C000080201C08081FF91EF919F918F912F912C
:1018D0000F900FBE0F901F9018951F920F920FB68A
:1018E0000F9211242F933F934F935F936F937F93A6
:1018F0008F939F93AF93BF93EF93FF938FEE91E0FE
:101900000E94310BFF91EF91BF91AF919F918F9109
:101910007F916F915F914F913F912F910F900FBEEB
:101920000F901F9018958FEE91E00E94F60A21E02B
:10193000892B09F420E0822F08951092F201109271
:10194000F10188EE93E0A0E0B0E08093F301909382
:10195000F401A093F501B093F6018CE891E0909327
:10196000F0018093EF018DEC90E09093FC01809367
:10197000FB018CEC90E09093FE018093FD0188ECDC
:1019800090E0909300028093FF0189EC90E09093A7
:101990000202809301028AEC90E09093040280930B
:1019A00003028EEC90E09093060280930502109261
:1019B00008021092090210920A0210920B02089576
:1019C000CF92DF92EF92FF920F931F93CF93DF930B
:1019D0007C016A01EB0100E010E00C151D0571F0BF
:1019E0006991D701ED91FC910190F081E02DC70143
:1019F0000995892B19F00F5F1F4FEFCFC801DF91B9
:101A0000CF911F910F91FF90EF90DF90CF900895AD
:101A10006115710581F0DB010D900020E9F7AD0142
:101A200041505109461B570BDC01ED91FC9102809E
:101A3000F381E02D099480E090E00895EF92FF9209
:101A40000F931F93CF93DF938C017B01C0E0D0E015
:101A5000F701EC0FFD1F6491662359F0F801A08196
:101A6000B181ED91FC91C8010995892B11F0219666
:101A7000EFCFCE01DF91CF911F910F91FF90EF90AB
:101A80000895DC01ED91FC91DB0114964D915C9180
:101A900015976D917C910280F381E02D0994DC0112
:101AA000ED91FC910190F081E02D099468E971E0DD
:101AB0000C94080D0F931F93CF93DF93EC010E94BA
:101AC000410D8C01CE010E94560D800F911FDF91B8
:101AD000CF911F910F910895FC01808191810C9409
:101AE0007115CF93DF93EC0188819981009711F0F4
:101AF0000E947115198218821D821C821B821A8213
:101B0000DF91CF9108950F931F93CF93DF93EC0153
:101B10008B016F5F7F4F888199810E94001600972B
:101B200031F0998388831B830A8381E001C080E0C0
:101B3000DF91CF911F910F910895CF93DF93EC0127
:101B400088819981892B29F08A819B818617970743
:101B500060F4CE010E94830D882341F08C819D8129
:101B6000892B19F4E881F981108281E0DF91CF910E
:101B70000895EF92FF920F931F93CF93DF93EC01A1
:101B80007B018A01BA010E949D0D811104C0CE0122
:101B90000E94710D07C01D830C83B7018881998154
:101BA0000E94D316CE01DF91CF911F910F91FF902C
:101BB000EF900895FC011182108213821282158227
:101BC00014826115710559F0FB0101900020E9F7BD
:101BD000AF0141505109461B570B0C94B90D0895A4
:101BE000CF93DF93EC016115710561F0FB0101906A
:101BF0000020E9F7AF0141505109461B570B0E94E5
:101C0000B90D02C00E94710DCE01DF91CF910895F0
:101C1000EF92FF920F931F93CF93DF93EC017B0121
:101C20000C811D816115710511F480E016C041150C
:101C3000510591F0040F151FB8010E949D0D8823D6
:101C4000A1F3288139818C819D81B701820F931F77
:101C50000E94D3161D830C8381E0DF91CF911F91E9
:101C60000F91FF90EF900895FB01448155816081B1
:101C700071810C94080E6115710559F0FB010190FA
:101C80000020E9F7AF0141505109461B570B0C9456
:101C9000080E80E00895EF92FF920F931F93CF9369
:101CA000DF93CDB7DEB728970FB6F894DEBF0FBE2F
:101CB000CDBF7C01CB014AE08E010F5F1F4FB80101
:101CC0000E94DA16F80101900020E9F7AF014150B7
:101CD0005109401B510BB801C7010E94080E2896FC
:101CE0000FB6F894DEBF0FBECDBFDF91CF911F912D
:101CF0000F91FF90EF90089508950E94CB090E94E4
:101D00007C0E8CE892E00E94C3120E942001C3E284
:101D1000DBE00E9483012097E1F30E94230BF9CFBF
:101D20000895615030F02091F100FC01208301966C
:101D3000F8CF289884E68093950208954091900208
:101D40005091910220918E0230918F0242175307D9
:101D5000B4F49091E8009570E1F39091E80092FD61
:101D600019C08093F10080919002909191020196A8
:101D70008F739927892B19F48EEF8093E800809157
:101D8000900290919102019690939102809390021B
:101D900081E0089580E00895CF92DF92EF92FF9264
:101DA0000F931F93CF93DF931F92CDB7DEB7082F0A
:101DB000162FF42E862F880F8E5F99830E949E0E19
:101DC00083E00E949E0EE02EC02E9981D92E8C2D8C
:101DD0008E19811798F4F601F7FE02C0849101C0B4
:101DE00080810E949E0E082F80E00E949E0E80231C
:101DF000FFEFCF1ADF0A8111EACF01C081E00F9017
:101E0000DF91CF911F910F91FF90EF90DF90CF90D6
:101E100008958091D70081608093D70080EA8093F5
:101E2000D80089B5806189BD89B5826089BD09B452
:101E300000FEFDCF61E070E080E090E00E9491093B
:101E40008091D8008F7C80618093D8008091E000E1
:101E5000807F8093E0000895CF93DF931F92CDB7EA
:101E6000DEB71982CE0101960E943D130E947514BF
:101E7000BE016F5F7F4F0E94EE1389810F90DF914B
:101E8000CF9108952FB7FC012083F8946770609379
:101E9000E9000895CF93DF931F92CDB7DEB7682F87
:101EA000CE0101960E94420F8091F20099819FBF5E
:101EB0000F90DF91CF910895FF920F931F93CF93CF
:101EC000DF9300D0CDB7DEB7F62E8A019091940251
:101ED000992311F057FF03C08FEF9FEF2BC0682F9E
:101EE000CE0101967A830E94420F8091F20090E029
:101EF000A8017A81801791070CF4AC01EF2DF72F20
:101F0000F40E84E6FE1639F028988093950290919D
:101F1000F1009193F7CF4115510521F08091F20026
:101F2000882321F089818FBFCA0104C08BE680938A
:101F3000E800F8CF0F900F90DF91CF911F910F9194
:101F4000FF900895CF93DF931F92CDB7DEB741E0A6
:101F500050E0BE016F5F7F4F0E945C0F019719F444
:101F6000898190E002C08FEF9FEF0F90DF91CF91BA
:101F70000895CF93DF931F92CDB7DEB7682FCE01C0
:101F800001960E94420F9091E800892F807295FF80
:101F900004C09091F20080E4891B99819FBF0F904B
:101FA000DF91CF9108956F927F928F929F92AF921F
:101FB000BF92CF92DF92EF92FF920F931F93CF9336
:101FC000DF931F92CDB7DEB7782E7B01C42EB52EDE
:101FD00080919402882369F0042F152F8AEFD82E60
:101FE000872D8072982E9AE3A92E872D8074882ED3
:101FF00011C08FEF9FEF57C0872D0E94B90F682E39
:1020000081110CC0DA94A9F361E070E080E090E007
:102010000E9491090115110579F73BC0282F30E086
:10202000021713070CF4602E672DCE0101960E9453
:10203000420F8091E80085FF29C0262D30E0021B69
:10204000130B992039F06A948FEF6816B1F0109253
:10205000F100F9CFF701862D77FE07C0815058F0C7
:1020600094919093F1003196F9CF815020F09191A5
:102070009093F100FACFE20EF31E8091E80085FF05
:102080000FC00115110511F481100AC089818FBF9D
:10209000C1CF5D9884E6809396028C2D9B2D03C062
:1020A000A092E800F3CF0F90DF91CF911F910F9195
:1020B000FF90EF90DF90CF90BF90AF909F908F9068
:1020C0007F906F9008951092E90010929102109203
:1020D000900290938F0280938E020895CF92DF92A8
:1020E000FF920F931F93CF93DF9300D0CDB7DEB74E
:1020F000F82E8A016B0101151105B1F0F601F7FE0A
:1021000002C0849101C0808149835A830E949E0E3F
:1021100001501109FFEFCF1ADF0A49815A8181115D
:10212000EACF8FEF9FEF01C0CA010F900F90DF91B0
:10213000CF911F910F91FF90DF90CF900895BF92A4
:10214000CF92DF92EF92FF920F931F93CF93DF9383
:102150006C018B01EB013BEFB32E2097C1F07E01A8
:10216000C134D1051CF020E4E22EF12C8091E8006E
:1021700082FFFCCFC8018C1B9D0B6E2D8C0D9D1D0D
:102180000E94910EB092E800CE19DF09E6CFC80197
:10219000DF91CF911F910F91FF90EF90DF90CF9043
:1021A000BF9008951F920F920FB60F921124DF92E5
:1021B000EF92FF920F931F932F933F934F935F9351
:1021C0006F937F938F939F93AF93BF93EF93FF93FF
:1021D000CF93DF93CDB7DEB76C97DEBFCDBF109244
:1021E000E9008091E80083FF23C168E0CE014596B5
:1021F0000E94910E82EF8093E8003D8937FF05C071
:102200008091E80080FFFCCF03C08EEF8093E80050
:10221000832F807609F0F0C02E894F89D88C211148
:102220000CC0303829F4809193028093F10002C0F1
:102230001092F1001092F100F4C0842F90E09D29DB
:10224000213049F43111EDC0019709F0EAC08091C5
:1022500093028D7F0AC0233059F43111E2C00197F7
:1022600009F0DFC080919302826080939302D9C00D
:10227000253041F48091E80080FFFCCF4068409316
:10228000E300CFC0263009F08DC0EB8CFC8C22E03F
:10229000D2122CC080E090E00E9463100E942C0FAC
:1022A00099E08E010F5F1F4FF801292F11922A9597
:1022B000E9F79983DA8291E09E8390EA98879AEF12
:1022C00099872091900230919102275F3F4F3C8384
:1022D0002B838D83C7010E94631049E050E0B80151
:1022E00080E00E946E100E942C0F9BC0C7010E94CC
:1022F00063100E947514BE016B5E7F4F0E9417141D
:10230000009719F00CF08DC090C081E0D8120EC07B
:102310008B8D9C8D089719F481E080938D028091BC
:102320008D0281112FC063E771E031C0E3E0DE125E
:102330007CC08F89882349F1823029F440E86BE022
:1023400081E991E01CC0813029F440E86BE085E828
:1023500091E015C0833009F068C00E9475148E01A9
:102360000F5F1F4FB8010E943614F8010190002042
:10237000E9F73197E01BF10B40E06E2FC8010E9496
:10238000CC0E4DC061E671E002C06DE971E06115EF
:10239000710509F44AC0FB01449150E080E80E94B5
:1023A0006E103FC0273009F440C0283021F481E08E
:1023B0008093F10036C02930A1F53370B1F5EBE020
:1023C000F1E081E021E036E39081992361F0809390
:1023D000E9002093EB0091919093EC003093ED0095
:1023E0008F5F873089F78EE78093EA001092EA00CA
:1023F0008F898093940215C08B8D9C8D0E946310F1
:10240000898D811105C0CE0145960E94481307C0F1
:102410000E947514BE016B5E7F4F0E945514882385
:1024200021F08EEF8093E80003C081E28093EB00FF
:102430006C960FB6F894DEBF0FBECDBFDF91CF9183
:10244000FF91EF91BF91AF919F918F917F916F918C
:102450005F914F913F912F911F910F91FF90EF90BE
:10246000DF900F900FBE0F901F9018958093E9009A
:102470008091F200882319F08AE38093E8000895A0
:102480001F920F920FB60F9211242F933F934F93E9
:102490005F936F937F938F939F93AF93BF93CF93EC
:1024A000EF93FF93C091E1008091E100837F8093DF
:1024B000E1008093E100C3FF0FC01092E90081E0CA
:1024C0008093EB001092EC0082E38093ED00109279
:1024D000940288E08093F000C2FF19C083E00E945C
:1024E000361280919602882339F0809196028150AD
:1024F00080939602882389F180919502882339F090
:1025000080919502815080939502882341F1C4FF08
:1025100010C08091E2008E7E81608093E200809105
:10252000E1008F7E8093E100809192028E7E806137
:1025300011C0C0FF16C08091E2008E7E8061809342
:10254000E2008091E1008E7E8093E1008091920212
:102550008E7E81608093920204C05D9ACDCF289ACE
:10256000D6CFFF91EF91CF91BF91AF919F918F9176
:102570007F916F915F914F913F912F910F900FBE7F
:102580000F901F901895109294021092930210923F
:1025900092020E94090F8091E1008E7E8093E100FB
:1025A0008DE08093E200559A209AEEEFFFE7859147
:1025B00094918B3F9C4D19F481E08093E70208953C
:1025C000CF93DF931F92CDB7DEB76983DC01ED9126
:1025D000FC910280F381E02D41E050E0BE016F5F8D
:1025E0007F4F09950F90DF91CF910895CF93DF939F
:1025F000EC018C859D8597FF05C082E00E94A20FAB
:102600009D878C878C859D85DF91CF91089583E090
:102610000C943612FC018485958597FD06C082E0F6
:102620000E944A0F90E00196089582E00E944A0FAE
:1026300090E00895FC018485958597FD05C02FEFF6
:102640003FEF35872487089582E00C94A20FCF9343
:10265000DF93EC0180911C01882331F083E00E941C
:10266000D30F1816190634F081E090E09B838A831B
:1026700080E090E0DF91CF910895FC0120812E5FF2
:10268000208342E450E061EA71E080E80C946E102F
:10269000FC0121818081813A59F4213209F04BC03B
:1026A00047E050E065E171E080E00E946E105EC09E
:1026B000813209F040C0233289F4838190E0982F61
:1026C00088273281832BA0E0B0E0809311019093A2
:1026D0001201A0931301B09314010FC0203239F4FA
:1026E00067E070E085E191E00E949F1009C022320E
:1026F00021F4828180931C0103C02D7F2032B1F52B
:102700008091E702811103C0E0E0F8E002C0EEEF43
:10271000FAE08091150190911601A0911701B091F6
:102720001801803B9440A105B10511F580911C0171
:1027300080FF03C01DC080E00895EE3F2AE0F2074D
:1027400031F0808191819093FF0A8093FE0A87E7A0
:1027500097E7918380832BE088E190E00FB6F894AF
:10276000A895809360000FBE2093600081E00895DB
:1027700088E10FB6F89480936000109260000FBE5D
:10278000A895EE3F8AE0F80739F08091FE0A909113
:10279000FF0A91838083EACF1092FF0A1092FE0A0B
:1027A000E5CF10929A021092990288EE93E0A0E091
:1027B000B0E080939B0290939C02A0939D02B09303
:1027C0009E028DEA91E090939802809397028FEF9A
:1027D0009FEF9093A4028093A3020895EF92FF923B
:1027E0000F931F93CF93DF937B01FC01C281D381B1
:1027F00000E010E0209781F0E881F9810280F38108
:10280000E02DB701CE01099597FD08C0080F191FEB
:102810000884D985C02DEECFC80102C08FEF9FEF8D
:10282000DF91CF911F910F91FF90EF9008950F933B
:102830001F93CF93DF938B01FC01C281D38120973B
:1028400071F0E881F9810480F581E02DB801CE01B5
:102850000995009731F40884D985C02DF0CF80E028
:1028600090E0DF91CF911F910F9108950F931F93E7
:10287000CF93DF938B01FC01C281D381209771F04C
:10288000E881F9810680F781E02DB801CE01099534
:10289000080F111D0884D985C02DF0CFF8011082D2
:1028A000DF91CF911F910F9108950F931F93CF93B5
:1028B000DF938B01FC01C281D381209771F0E88105
:1028C000F9810190F081E02DB801CE0109958111C7
:1028D00006C00884D985C02DF0CF80E001C081E01A
:1028E000DF91CF911F910F9108958091EC0281119A
:1028F0000DC082E08093E80284E08093E9021092A8
:10290000EB021092EA0281E08093EC0288EE92E002
:10291000089597FB072E16F4009407D077FD09D091
:102920000E94C51407FC05D03EF4909581959F4FF9
:102930000895709561957F4F0895A1E21A2EAA1B04
:10294000BB1BFD010DC0AA1FBB1FEE1FFF1FA2175F
:10295000B307E407F50720F0A21BB30BE40BF50B5C
:10296000661F771F881F991F1A9469F760957095E5
:10297000809590959B01AC01BD01CF010895EE0FAC
:10298000FF1F0590F491E02D0994AA1BBB1B51E198
:1029900007C0AA1FBB1FA617B70710F0A61BB70BCF
:1029A000881F991F5A95A9F780959095BC01CD0174
:1029B0000895CF93DF938230910510F482E090E088
:1029C000E091F602F091F70220E030E0A0E0B0E004
:1029D000309739F14081518148175907B8F04817AD
:1029E000590771F482819381109729F013969C9373
:1029F0008E9312972CC09093F7028093F60227C013
:102A00002115310531F04217530718F0A901DB01F8
:102A100001C0EF019A01BD01DF010280F381E02DC9
:102A2000D7CF21153105F9F0281B390B243031059A
:102A300080F48A819B816115710521F0FB019383EC
:102A4000828304C09093F7028093F602FE013296CF
:102A500044C0FE01E20FF31F81939193225031098C
:102A6000398328833AC02091F4023091F502232B58
:102A700041F420910201309103013093F50220933B
:102A8000F40220910001309101012115310541F43A
:102A90002DB73EB74091040150910501241B350B21
:102AA000E091F402F091F502E217F307A0F42E1B77
:102AB0003F0B2817390778F0AC014E5F5F4F2417A2
:102AC000350748F04E0F5F1F5093F5024093F40214
:102AD0008193919302C0E0E0F0E0CF01DF91CF91CC
:102AE0000895CF93DF93009709F487C0FC013297D4
:102AF00013821282C091F602D091F702209781F4DE
:102B000020813181280F391F8091F4029091F502C4
:102B10008217930779F5F093F502E093F4026DC004
:102B2000DE0120E030E0AE17BF0750F412964D9161
:102B30005C9113979D014115510509F1DA01F3CF1D
:102B4000B383A28340815181840F951F8A179B070D
:102B500071F48D919C911197840F951F029691832A
:102B6000808312968D919C91139793838283211574
:102B7000310529F4F093F702E093F6023EC0D90143
:102B80001396FC93EE9312974D915D91A40FB51F90
:102B9000EA17FB0779F480819181840F951F0296D3
:102BA000D90111969C938E938281938113969C9365
:102BB0008E931297E0E0F0E08A819B81009719F0F4
:102BC000FE01EC01F9CFCE01029628813981820FF6
:102BD000931F2091F4023091F5022817390769F408
:102BE000309729F41092F7021092F60202C0138275
:102BF0001282D093F502C093F402DF91CF91089531
:102C0000A0E0B0E0E6E0F6E10C941317EC01CB0194
:102C1000209719F40E94D914B8C0FE01E60FF71FDF
:102C20009E0122503109E217F30708F4ACC0D90124
:102C30000D911C91119706171707B8F00530110573
:102C400008F49FC0A801445051094617570708F4DB
:102C500098C002501109061B170B019311936D9335
:102C60007C93CF010E9471158CC05B01A01AB10A40
:102C70004E01800E911EA091F602B091F702612CD8
:102C8000712C60E070E0109709F449C0A815B905EF
:102C9000C9F5ED90FC901197670142E0C40ED11C7C
:102CA000CA14DB0478F147018A189B08640142E0EA
:102CB000C40ED11C1296BC9012971396AC91B5E03D
:102CC000CB16D10440F0B282A38391828082D901D5
:102CD0008D939C9309C00E5F1F4F0E0D1F1DF901B0
:102CE00011830083EB2DFA2F6115710531F0DB01A3
:102CF0001396FC93EE93129744C0F093F702E0937F
:102D0000F6023FC06D917C9111976616770608F424
:102D10003B01BD0112960D90BC91A02DB4CF6091E6
:102D2000F4027091F50268157905E9F468167906E0
:102D3000D0F440910001509101014115510541F439
:102D40004DB75EB76091040170910501461B570BAA
:102D5000E417F507C0F4F093F502E093F402F901EB
:102D6000918380830EC00E94D9147C01009759F092
:102D7000A801BE010E94CA16CE010E947115C701AA
:102D800004C0CE0102C080E090E0CDB7DEB7EEE037
:102D90000C942F17FB01DC0102C001900D924150F1
:102DA0005040D8F70895FB01DC0101900D920020FE
:102DB000E1F70895BB274A3031F4992322F4BDE2AC
:102DC000909581959F4F0C94E616BB27FB015527E4
:102DD000AA27880F991FAA1FA41710F0A41B839578
:102DE0005051B9F7A05DAA3308F0A95DA1930097EF
:102DF00079F7B111B1931192CB010C94FF16DC015C
:102E0000FC01672F71917723E1F7329704C07C9121
:102E10006D9370836291AE17BF07C8F308952F9228
:102E20003F924F925F926F927F928F929F92AF925A
:102E3000BF92CF92DF92EF92FF920F931F93CF93A7
:102E4000DF93CDB7DEB7CA1BDB0B0FB6F894DEBF3E
:102E50000FBECDBF09942A88398848885F846E8464
:102E60007D848C849B84AA84B984C884DF80EE80AE
:102E7000FD800C811B81AA81B981CE0FD11D0FB6B7
:102E8000F894DEBF0FBECDBFED010895F894FFCFDB
:102E90000000F80280002C01000000C180810000C9
:102EA00000FFFFFFFF00E10000000000005858583D
:102EB000585858583130302F003A00300031002C2B
:102EC000002F746D702F7377697463685F76616C1F
:102ED000756573006C732000207C2061776B202760
:102EE0004E523D3D0027006C73006D6B64697200AB
:102EF0002D7000726D00726D646972000000000038
:102F000028053F05C3069806B0063E051F1C1F1E78
:102F10001F1E1F1F1E1F1E1F00000000740BE00C51
:102F2000F60A0F0B010B520B0D0A006E616E006961
:102F30006E66006F7666002E0000000000E012272B
:0A2F4000130A131A13F61207130008
:00000001FF
